:020000040000FA
:1020000030040020D5200000F120000081290000CC
:1020100000000000000000000000000000000000C0
:10202000000000000000000000000000F52000009B
:102030000000000000000000F7200000C72A000098
:10204000712A0000792A0000812A00008D2A0000F0
:1020500035260000F52F000075360000813600009F
:10206000B5290000BD290000A12A0000A92A00000E
:102070009129000099290000DD2F0000E52F0000C4
:10208000ED2F0000A9290000FD2F00000530000001
:102090000D300000612A0000ED370000992A000091
:1020A000AF230000692A0000D9370000E1370000A3
:1020B000E5290000A1290000C92600002D26000006
:1020C0000348854600F05AF900480047A123000064
:1020D0003004002009480A4A002100A1814200D9A9
:1020E00002440848084A02600848804708480047F8
:1020F000FEE7FEE7FEE7FEE7FEE7FEE70000002062
:102100000000000008ED00E000200000152F000096
:10211000C120000030B50B460146002020220124DA
:1021200009E00D46D5409D4205D31D469540491B0B
:102130002546954040191546521E002DF1DC30BD54
:1021400003460B439B0703D009E008C9121F08C0D0
:10215000042AFAD203E00B780370401C491C521E7B
:10216000F9D27047D2B201E00270401C491EFBD286
:1021700070470022F6E710B513460A460446194692
:10218000FFF7F0FF204610BD421C0178401C0029DB
:10219000FBD1801A7047F8B502464A40D40F42007E
:1021A0004B0052085B089A4202D20246084611468A
:1021B0004A0023D0C30D4A00DDB2120EAD1A202D05
:1021C00035DA49020126490AF6058A19002C00D0A1
:1021D000524220214F1B1146B9402A411018C20D0E
:1021E0009A4221D0002C17D0012D08DCDA05801A84
:1021F000D20F8019D207DBB200F087F8F8BDDA05FC
:10220000801A012340001B06C01880185A4280180B
:10221000CA0F1043490007E04908C2071143DA0515
:10222000801A80194008801800F067F8F8BD610036
:102230000122511A001BF7E70122D2075140AAE7F9
:102240000122D2075040A6E770B502464A40D50F9A
:1022500040004A00ED0740085208002814D0002A28
:1022600012D0C40DD30D41020120C0055202490A0B
:10227000520AE41A091812187D34914201D3641CE1
:1022800000E04900002C01DA002070BD00239142DB
:1022900001D3891A0343400849000028F7D10029D7
:1022A0000AD0914202D10121C90705E0914201D231
:1022B000012101E00121C943E005C018401900F0E7
:1022C0001CF870BD10B500229623114600F01DF8D1
:1022D00010BD410040020122400AD205090E8018BB
:1022E0007F2901DA00207047962903DC9622511AD3
:1022F000C8407047963988407047002904DA401C6E
:10230000490001D140084000704770B40024050C1A
:1023100005D11024000402D1002921D01124050E7A
:1023200001D100020834050F01D10001241D850FE1
:1023300001D18000A41C002801DB4000641C00299E
:1023400008D020252E1B0D46F540A14000D00121CC
:102350002943084301061B1B000ADB1D02D5002090
:1023600070BC7047DB05181880180029F8DA401C8B
:102370004900F5D170BC400840007047064C01256B
:10238000064E05E0E36807CC2B430C3C984710341D
:10239000B442F7D3FFF798FE903B0000B03B00003B
:1023A00080B500F0B7FD01F041FB002080BD80B595
:1023B000C046C046C046C04680BD000010B50449B6
:1023C00009680A242246FFF7BBFE204610BDC0461E
:1023D00064000020044909684A7842700A78027053
:1023E00089788170032070476800002010B50024B0
:1023F000204600F09FFC204600F0ACFC10BDF0B57C
:1024000087B06C461C262046314601F03DFA012576
:102410003046294600F012FD002601960927304675
:102420003946224600F060FA304639462A4600F026
:102430009FFA01950A2730463946224600F054FAA1
:10244000304639462A4600F093FA07B0F0BDF0B5A1
:1024500087B06C461C262046314601F015FA01254E
:102460003046294600F0EAFC002601960227304655
:102470003946224600F038FA304639462A4600F0FE
:1024800077FA0195032730463946224600F02CFAA8
:10249000304639462A4600F06BFA07B0F0BD00001E
:1024A000F0B585B0112000F005FD0225284600F0AA
:1024B000F5FC0124114F28462146B847284600F074
:1024C0000BFD0425284600F0DBFC002630462146A3
:1024D000B84701960295032003900C20049001A8B0
:1024E00000F04EFC204600F08DF928462146B84702
:1024F000284600F0F1FC05B0F0BDC046D12A00002E
:1025000070B588B006460B200124214600F096FCE9
:1025100000250195069504200490079401A80574F0
:102520000572029501F022F82004801B86B2304625
:1025300000F0F6FF304600F0FDFF284600F06AFD8F
:1025400001F00CF805200321224600F077F808B0CE
:1025500070BDF0B587B001AE1821304601F094F996
:10256000002501242846214600F068FC4020019007
:1025700003950295E120400206906002049000F06D
:10258000CFFB0590A7073846314601F0DFF8384603
:10259000294601F0C7F83846214601F0C3F838460D
:1025A000294601F0C7F83846214601F0C3F8062055
:1025B0000321224600F042F807B0F0BDF0B587B025
:1025C00001AE1821304601F05FF901242046214672
:1025D00000F034FC402001900025039502954B202B
:1025E000C00106906002049000F09AFB05900E4F27
:1025F0003846314601F0AAF83846294601F092F8EB
:102600003846214601F08EF83846294601F092F806
:102610003846214601F08EF807200221224600F0BC
:102620000DF807B0F0BDC0460001004080B5C046BF
:10263000C04680BD80B5C046C04680BD70B500288C
:1026400005DB1F23034001249C401B4B1C60C3007F
:1026500018241C408901CBB2A340FF21A140CC43E8
:102660001649002805DB03250646AE43154D7519AE
:1026700006E00F250540083D0326B543104EAD1971
:102680002E6826401E432E60012A07D1002811DB48
:102690001F221040012282400A6070BD002809DB21
:1026A0001F2210400122824080200A50BFF34F8F2A
:1026B000BFF36F8F70BDC04680E200E000E100E034
:1026C0001CED00E000E400E080B5C046C046C04616
:1026D000C04680BDF0B589B00D460446794E0896D7
:1026E00068462021FFF745FD04200C2C32D801223A
:1026F0001146A140184B19422CD0500217490B6AC1
:10270000834315406802184308620020144A05E01C
:102710008300D55865436F46FD50401C0828F7D10B
:102720000022134613E008969C00684605590AE00B
:10273000089F781E08900720002F0BD06348C862BE
:102740006348C8620D510859A842F1D15B1C072BA0
:10275000E9D9104609B0F0BD561100000000024052
:10276000803A0000FFB5574902910391042101907E
:10277000420C43D102980390534A1168102421421D
:1027800006D0039A511E03910921002AF4D135E0A5
:102790004E4DD5604E4ED66000200090C143116171
:1027A000D560D6605161029803900CE0039B591EDE
:1027B00003910921002B21D0D560D6601168B9435F
:1027C00002230B4313601168032739400229EDD11E
:1027D000019800990170029803901068204206D079
:1027E0000398411E039109210028F6D106E0D56027
:1027F000D66000991161D560D6605161084604B079
:10280000F0BDC0463049FA4ACA60FA4ACA60800040
:102810000C2210400B68934303430B600020704769
:10282000F0B585B0029127490391049104220190EB
:10283000430C43D103980490234B1A6810252A4275
:1028400006D0049B5A1E04920922002BF4D135E0D5
:10285000E74EDE60E74FDF6000200090C2431A6160
:10286000DE60DF605A61039804900CE004994A1E10
:1028700004920922002921D0DE60DF601968A1439B
:1028800001220A431A601A6803242240012AEDD16A
:10289000029901980160039804901868284206D0B4
:1028A0000498411E049109220028F6D106E0DE605A
:1028B000DF60009A1A61DE60DF605A61104605B081
:1028C000F0BDC046FFFFFF00200002405A5A000042
:1028D000A5A500000246012003468B40116819405F
:1028E000002900D108467047FEB515460E460190F6
:1028F0001C49471838460C300024314622460294C1
:10290000194B9847B000019908181C4944503846A3
:1029100008302A783146144CA0472A793846314687
:10292000A04738461C302A7A3146A0473846203026
:102930002A7B3146A047384624302A7C3146A047BE
:102940002C372A7D38463146A047A8690121C903A2
:10295000064A13688B43C00380B218431060029884
:1029600003B0F0BD000D0240B12A0000080F024084
:10297000890040180149425000207047000C024075
:1029800081B00020009000980028FCD001B0704772
:1029900080B5C046C04680BD80B5C046C04680BD3B
:1029A00080B5C046C04680BD80B5C046C046C04662
:1029B000C04680BD80B500F019F880BD80B500F03C
:1029C0004DF880BD10B514300024224600F070F898
:1029D000204610BD80B51030FFF77CFF80BD006839
:1029E000C0B2704780B5C046C04680BD70B5194CB6
:1029F00001212046FFF7EEFF00281BD001212046D1
:102A0000FFF7E0FF144D2879401C28716979C0B2A6
:102A1000884208D228182521405C2168FF22914372
:102A20000143216006E000262E7128462530FFF77D
:102A3000A0FB6E7100212046FFF7CCFF002808D0D4
:102A400000212046FFF7BEFF2046FFF7C8FF0249DE
:102A5000C87070BD000200400000002000BF704739
:102A600080B5C046C04680BD80B5C046C04680BD6A
:102A700080B5C046C04680BD80B5C046C04680BD5A
:102A800080B5C046C046C046C04680BD80B5C04681
:102A9000C046C046C04680BD80B5C046C04680BD69
:102AA00080B5C046C04680BD80B5C046C04680BD2A
:102AB00001238B40012A02D10168194301E001681A
:102AC00099430160704780B5C046C04680BD000094
:102AD000F8B50C460146A74DA748A860A748A860CE
:102AE00001273A072E6A0420042900D97DE0C04658
:102AF0007944097949008F4402142E415C00012079
:102B0000002C014600D121462A6882430A432A60EC
:102B10000020002C69D0E9680122D2021142FAD0CB
:102B200063E0286A104328623548016803220A439B
:102B300002602868022188430121002C00D121462F
:102B40004900084328600020002C4ED0296940220B
:102B50001142FBD049E02868042188430121002C60
:102B600000D121468900084328600020002C3CD079
:102B70006969012212031142FAD036E0286A104333
:102B80002862032080031D490A6802430A602868FE
:102B9000082188430121002C00D12146C9000843A7
:102BA00028600020002C20D0A96940221142FBD0CF
:102BB0001BE03804296A014329620F480168394340
:102BC0000160142000F06AFE286810218843002C60
:102BD00000D127463901084328600020002C04D08A
:102BE000E96B012292041142FAD02E6201B0F0BDCD
:102BF0005A5A0000A5A50000002400408C0D024098
:102C00004C1D0240F0B58AB0B14801880791418857
:102C1000069181880491C1880291058C0B20C143E3
:102C2000E34A5058440907231C400120C603E248E8
:102C30000890364800903648019036480390364850
:102C40000590364F7B48042C099124D87C44247984
:102C50006400A744025422292B00106808990840F8
:102C60000799884238464AD0106808990840069962
:102C70008842059843D01068089908400499884212
:102C800003983CD01068089908400299884201983E
:102C900035D0009833E0002031E09068C34901400E
:102CA0004B204002A9422AD0304628E0116B032471
:102CB0000C40032C05461DD110680899084007995F
:102CC00088423D4616D01068089908400699884207
:102CD000059D0FD010680899084004998842039D0B
:102CE00008D010680899084002998842019800D0DD
:102CF00000980546106B41090F2008406843099968
:102D00005158090A1940C8400AB0F0BD00093D00F9
:102D100000127A000024F4004086510100366E0152
:102D200080B5FFF76FFF75490968C90A03220A4099
:102D3000D04080BD7149724A8A60724A8A60072217
:102D40001202000210400B68934303430B60002003
:102D50007047C04669496A4A8A606A4A8A600322A3
:102D6000D202C00210400B68934303430B60002063
:102D70007047C046002000405A5A0000A5A5000038
:102D8000F0B5534A118856889588D3888468884A54
:102D9000032C23D11768884C27408F4203D1C76882
:102DA0000621022F44D811682140B14203D1C668E0
:102DB0000621022E3CD811682140A94203D1C568E2
:102DC0000621032D34D81168214004460C34994261
:102DD0000DD123680621062B09D929E0C168154BBE
:102DE0004B4304460C340621134DAB4220D803213B
:102DF0004B0305686D031D40166B9E432E431663FF
:102E000043689B001C252B40166BAE431E43166384
:102E10000F235B01246864011C40156B9D4325430F
:102E2000156380680840136B8B43034313630021D1
:102E30000846F0BD0048E801006CDC0270B50C46A5
:102E40000546A8060C4802D4294622460FE0202158
:102E50008D43061D304629462246FFF729FE0748C6
:102E6000032D01D1047004E0027803213046FFF7FE
:102E70001FFE002070BDC04620200040D801002069
:102E800040001349405A4C490140494802684B4BA5
:102E900013400B43036000207047C04603218902A2
:102EA000800208400B4A13688B43034313600020E1
:102EB0007047C04640000649405A3C490140054819
:102EC00002683C4B13400B43036000207047C04630
:102ED000000C10001420004080B50849084A8A60A0
:102EE000084A8A600A68E0239A434001C0B210434E
:102EF000086000F009F8002080BDC04600200040B6
:102F00005A5A0000A5A5000080B5FFF77BFE2C49AA
:102F1000086080BDF8B52448418B244A0A40244CFF
:102F2000A168244B0B401343A36000882249014051
:102F30002068224A02400A432260FFF763FE2049CC
:102F4000086060690121090762690A43626107211B
:102F50004A031C49CB681340CB60CA6C0023CB6486
:102F6000194AD568D360D36C184D1D40D5640B68E1
:102F7000174D2B430B600E6C164B1E430E641668E8
:102F80001E431660176C144E374317640F6A2F43A5
:102F90000F620D6E1D430D66116A19431162116EA9
:102FA000314311666061F8BD080C1000FF0300009A
:102FB0000C20004000FCFFFFFF07000000F8FFFFAF
:102FC00074000020800D0240001D0240C3F9000083
:102FD000FF1F0000FFFF00003C06000080B5C04658
:102FE000C04680BD80B5C046C04680BD80B5C046E5
:102FF000C04680BD80B500F01FF880BD80B5C046DA
:10300000C04680BD80B5C046C04680BD80B5C046C4
:10301000C04680BD01218140C843024908600020AC
:103020007047C0461458004002490968C140012059
:103030000840704710580040FEB500242046FFF7B6
:10304000F3FF012800D046E2A34D2888401C2880C9
:10305000A24F012038700190800702907889A04B20
:1030600000281ED0401C788199B280B2884218D9BD
:103070009C4E962130461D46FFF77BF8304600F007
:103080006DFC9949088099480088315C029800F0ED
:103090009CFB2B46904D787A401C7872019979817F
:1030A00000E0787AC0B20F2803D37C81019838728F
:1030B0007C728F48017800290BD08E490A88521CF7
:1030C0000A8092B2322A04D304700C808A48019993
:1030D0000170F879002800D163E11D46B989491CC7
:1030E000B981012819D1FC4A0A4012097D2A14D35A
:1030F0000220F871BC71FA4E96213046FFF739F87C
:103100003046FFF767F9F7490880F7480088315CD7
:10311000029800F05AFBF879B9898AB2F34B9A42C7
:1031200015D3022813D10320F871ED4E96213046B5
:10313000FFF71FF8304600F005FCEA490880EA482E
:103140000088315C029800F040FBF879B989E84AC0
:103150000A4052097D2A16D3032814D10420F8719D
:10316000BC71DF4E96213046FFF703F8304600F081
:103170002BFCDC490880DC480088315C029800F0B8
:1031800024FBF879B9898AB2DA4B9A4216D304281B
:1031900014D10520F871BC71D14E96213046FEF74E
:1031A000E8FF304600F01CFCCE490880CE4800887D
:1031B000315C029800F009FBF879B9898AB2CE4BEC
:1031C0009A4216D3052814D10620F871BC71C44E5A
:1031D00096213046FEF7CDFF304600F08FFBC14907
:1031E0000880C1480088315C029800F0EEFAF87956
:1031F000B9898AB2C14B9A4216D3062814D1072046
:10320000F871BC71B64E96213046FEF7B2FF3046DB
:1032100000F0B0FBB3490880B3480088315C0298E5
:1032200000F0D3FAF879B989B54A0A4092097D2AA3
:1032300016D3072814D10820F871BC71A84E962126
:103240003046FEF796FF304600F070FBA549088037
:10325000A5480088315C029800F0B7FAF879B9897E
:103260008AB2A84B9A4219D308282A4617D10920B6
:10327000F871BC719A4E96213046FEF77AFF3046BF
:1032800000F032FB9749088097480088315C02982B
:1032900000F09BFA2A46F879B98900E02A4692B2F2
:1032A0008BB293422AD909288C4D28D10A20F87173
:1032B000BC718B4E96213046FEF75BFF3046FFF720
:1032C0007DF88849088088480088315C029800F0C1
:1032D0007CFAF879B98912E0DA0100209800002020
:1032E0000F2700003E010020D4010020060000202E
:1032F00002000020D601002001000020774D8AB294
:10330000814B9A4216D30A2814D10B20F871BC7154
:10331000734E96213046FEF72CFF3046FFF75AF8E1
:103320007049088070480088315C029800F04DFABE
:10333000F879B9898AB2754B9A4216D30B2814D101
:103340000C20F871BC71F64E96213046FEF711FF45
:10335000304600F0DFFAF049088063480088315CAD
:10336000029800F032FAF879B98989B2684A914234
:1033700017D30C2815D10020F871B881B871E84E28
:1033800096213046FEF7F5FE3046FFF717F8E24982
:10339000088055480088315C029800F016FA0198C0
:1033A00078812E880A213046FEF7B4FE002901D12B
:1033B0000198787032213046FEF7ACFE002901D129
:1033C0000198B87064213046FEF7A4FE002901D1AF
:1033D0000198F8707D25A9003046FEF79BFE002974
:1033E00001D101983871E9003046FEF793FE0029BB
:1033F00001D10198787100943E493046FEF78AFE6B
:10340000002901D10198B87142493046FEF782FE89
:103410003C7A002916D1012C14D102203872C04EFA
:1034200096213046FEF7A5FE3046FEF7D3FFBA4997
:1034300008802D480088315C029800F0C6F93C7A7B
:1034400026480688E9013046FEF764FE002917D1B8
:10345000022C224D15D103203872B14E96213046F0
:10346000FEF787FE304600F0EFFAAB4908801E48B1
:103470000088315C029800F0A8F93C7A2E8800E0C0
:10348000164D25493046FEF745FE002915D1032C7F
:10349000009C13D1A24E96213046FEF76AFE3046BC
:1034A000FEF78CFF9C4908800F480088315C029829
:1034B00000F08BF93C722E8800E0009CAD204001AA
:1034C000301816498E4200D30646300400D12C80B5
:1034D0000020FFF79FFDFEBDF0FF0000DA01002095
:1034E0003E010020D401002006000020B80B00009F
:1034F000E0FF00008813000070170000581B000058
:10350000C0FF00002823000050460000444800008F
:10351000384A0000983A00006842000060EA000063
:1035200003490A68084B134003430B6000207047AF
:103530000058004003490A68034B134003430B60E3
:1035400000207047045800400000FFFF2648016833
:1035500001220A43026000207047C0460120800219
:1035600021490A6802430A6000207047B0B5032170
:103570000A0301680B0313401B490C6894431C4366
:103580000C6001225302446864021C400D689D4394
:1035900025430D60037A14020D68A54313401A02F7
:1035A0002A430A60C268120170231A400C689C43C7
:1035B00014430C60027CD20008231A400C689C4320
:1035C00014430C604269920004231A400C689C4327
:1035D00014430C6080694000022210400B68934342
:1035E00003430B600020B0BD0C580040B0B5484DFF
:1035F0006878012836D1288900282CD045484178A0
:103600000278412A1ED1827835291BD1C078412AFF
:1036100018D1352816D11448E8600C200121FFF795
:1036200059F828700F2044022046FFF79BF82870B5
:10363000FF21084206D1E9682046FFF7F1F828701B
:1036400020682861BFF34F8F084809490160BFF324
:103650004F8F00BFFDE72F489621FEF78AFD00201F
:1036600028816870B0BDC0465555AAAA0CED00E08F
:103670000400FA0580B500F009F8C046C04680BDD8
:1036800080B5C046C046C046C04680BD70B5012664
:10369000B40700252046294600F053F8002814D02E
:1036A0002046294600F03EF8204600F08BF81749E6
:1036B0000870097816480289164B9954511C8AB231
:1036C000952A00D80D46058186700121204600F01C
:1036D00038F8002813D00121204600F023F80C48C8
:1036E000C188491CC18089B20B4A1288914207D215
:1036F0000B48405C2168FF2291430143216070BD6B
:103700000021C1800548017070BDC0462C02002018
:1037100000000020A8000020D4010020A600002006
:103720003E01002010B5143000242246FFF7C0F9F6
:10373000204610BD80B5001D0122FFF7B9F9002019
:1037400080BD80B51030FFF7C5F880BDFEB50F46CF
:1037500005460424002F2BD000246C600ECF38685F
:10376000134303430B436B6080220A43291D0C3F24
:10377000C02A1DD1C00902910F4901400FA0465A2D
:103780003869FEF79FFD01907869B040FEF79AFD19
:1037900001460198FEF758FD3F210906FEF7FBFCA4
:1037A000FEF797FDA861042101220298FFF780F936
:1037B000204603B0F0BDC046FCFFFF01040000003E
:1037C000030000000068C0B270470268FF239A43FC
:1037D0000A4302600020704780B5C046C04680BDE5
:1037E00080B5C046C046C046C04680BD80B5C04614
:1037F000C04680BD0F481E210160E1210160704775
:1038000010B50F221140074B1C6894430C431C60F9
:103810004001202108401A688A4302431A600020B0
:1038200010BDC046840F004002481E210160E12106
:1038300001607047800F004080B5FEF7D7FDFEF7AE
:103840002FFEFEF704FEFEF7DAFDFEF782FEFEF71E
:10385000B5FE0F204002FEF785FF06200121FEF78E
:1038600039FF0028F9D10748FEF74AFEFFF76EFE40
:103870000F200121FFF7E2FA00200A21FFF7C0FF25
:1038800080BDC046B80B0000002804D105E000222E
:103890000270401C491E0029F9D17047F8B50E4C42
:1038A0000E4D65600021A160052121600C4E0BE0EA
:1038B0000020A06030680B49FEF72CFC691C081A38
:1038C000A1688142FCD83846471E0028F0D1206804
:1038D000012188432060F8BD10E000E0FFFFFF00F9
:1038E00074000020A086010080B5034909680C22FD
:1038F000FEF726FC0E2080BD7800002010B504499C
:1039000009681E242246FEF71BFC204610BDC04657
:103910007C00002010B5044909680E242246FEF7F9
:103920000FFC204610BDC0466C00002010B50449B5
:1039300009680C242246FEF703FC204610BDC04651
:103940008800002010B5044909680E242246FEF7BD
:10395000F7FB204610BDC0468C00002010B504497E
:10396000096832242246FEF7EBFB204610BDC04614
:103970009000002070B50446114D2846FEF704FC67
:1039800006461048016809222046FEF7D9FB20466A
:103990000930F1B2002203E0EB5C0370521C401CC2
:1039A000D3B29942F8D80A21C170302181703821F0
:1039B00041702C210170001D001BC0B270BDC046BB
:1039C000FA0100208400002010B5044909680E2483
:1039D0002246FEF7B5FB204610BDC0468000002001
:1039E000F8B504460F4D2846FEF7CEFB06460E4FAF
:1039F000B9680A222046FEF7A3FB20460A30F1B23E
:103A0000002203E0EB5C0370521C401CD3B29942CD
:103A1000F8D8F96809780170401C001BC0B201B0E9
:103A2000F0BDC046DC0100205000002080B5FFF74B
:103A300003FFFFF7F9FEFFF7DDFE0F204002FEF760
:103A400091FEFFF7D3FDFCE710B5044909680E2489
:103A50002246FEF775FB204610BDC04670000020D0
:103A600002E008C8121F08C1002AFAD17047704747
:103A7000002001E001C1121F002AFBD170470000A5
:103A800020000000170000001B000000504600004E
:103A9000E022020018000000F0000000E80300002F
:103AA00041542B48545048443D6170706C696361C7
:103AB00074696F6E2F6A736F6E2C2A2F2A0A004169
:103AC000542B48545054494D3D310A0041542B4821
:103AD000545053534C3D4F46460A0041542B4854D2
:103AE00050504B3D4F4E0A0041542B574B4D4F44C5
:103AF0003D485454500A0061646D696E41542B5323
:103B00000A0041542B48545054503D504F53540ACE
:103B10000041542B574B4D4F443D4D5154540A00D6
:103B20007B2270726F6A656374223A2274657374C3
:103B3000222C2276657273696F6E223A22312E3002
:103B40002E30222C227061636B4E6F223A2230227B
:103B50007D0A007D7D0A002B2B2B007B226D736775
:103B60004E6F223A0041542B48545055524C3D0060
:103B700041542B48545053563D002C22636D64220F
:103B80003A323031352C2264617461223A7B000074
:103B9000B03B00000000002098000000603A0000E8
:103BA000483C00009800002098030000703A000094
:103BB0000000000000000000000000000000000005
:103BC000000000006F70656E6761746570686F74E7
:103BD0006F676174650000000000000000000000D5
:103BE00000000000000000000000000000000000D5
:103BF00000000000000000000000000000000000C5
:103C00005B3B0000533B0000653B0000553B000060
:103C10007A3B0000F73A0000573B0000E83A00000A
:103C2000113B000000093D00DB3A0000A03A000013
:103C3000CC3A0000703B0000BF3A0000023B00009D
:083C4000203B00000000000021
:04000005000020C116
:00000001FF
