:020000040000FA
:1000000070070020D5000000EF000000E10A0000AA
:1000100000000000000000000000000000000000E0
:10002000000000000000000000000000F3000000DD
:100030000000000000000000F5000000C70D0000F7
:10004000690D0000710D0000790D0000850D0000A4
:10005000030600001D100000231400002F140000F0
:10006000E90B0000F10B0000990D0000A10D00004C
:10007000F10A0000F90A0000051000000D10000050
:1000800015100000DD0B0000251000002D100000F1
:1000900035100000590D00001B180000910D0000E4
:1000A000DB030000610D0000071800000F180000BE
:1000B000F90B0000D50B0000BD060000FB05000099
:1000C0000348854600F070F900480047CD03000062
:1000D0007007002009480A4A002100A1814200D986
:1000E0000244084802600848804708480047FEE785
:1000F000FEE7FEE7FEE7FEE7FEE700000000002067
:100100000000000008ED00E0C50F0000C100000085
:1001100030B50B46014600202022012409E00D469F
:10012000D5409D4205D31D469540491B2546954027
:1001300040191546521E002DF1DC30BD70B500246B
:100140002546002801DA01244042002901DA012570
:100150004942FFF7DDFFAC4200D04042002C00D006
:10016000494270BD03460B439B0703D009E008C911
:10017000121F08C0042AFAD203E00B780370401C57
:10018000491C521EF9D27047D2B201E00270401CE5
:10019000491EFBD270470022F6E710B513460A4607
:1001A00004461946FFF7F0FF204610BD0321001D4D
:1001B000401E037812021A43491EF9D510467047B3
:1001C000F8B502464A40D40F42004B0052085B0883
:1001D0009A4202D20246084611464A0023D0C30D75
:1001E0004A00DDB2120EAD1A202D35DA4902012681
:1001F000490AF6058A19002C00D0524220214F1BD3
:100200001146B9402A411018C20D9A4221D0002C43
:1002100017D0012D08DCDA05801AD20F8019D20719
:10022000DBB200F087F8F8BDDA05801A0123400040
:100230001B06C01880185A428018CA0F1043490084
:1002400007E04908C2071143DA05801A80194008FF
:10025000801800F067F8F8BD61000122511A001BF8
:10026000F7E70122D2075140AAE70122D207504006
:10027000A6E770B502464A40D50F40004A00ED0798
:1002800040085208002814D0002A12D0C40DD30D03
:1002900041020120C0055202490A520AE41A091813
:1002A00012187D34914201D3641C00E04900002CF7
:1002B00001DA002070BD0023914201D3891A034363
:1002C000400849000028F7D100290AD0914202D104
:1002D0000121C90705E0914201D2012101E001217C
:1002E000C943E005C018401900F01CF870BD10B5F6
:1002F00000229623114600F01DF810BD4100400277
:100300000122400AD205090E80187F2901DA002057
:100310007047962903DC9622511AC84070479639D7
:1003200088407047002904DA401C490001D1400888
:100330004000704770B40024050C05D1102400045F
:1003400002D1002921D01124050E01D10002083468
:10035000050F01D10001241D850F01D18000A41CCF
:10036000002801DB4000641C002908D020252E1B3A
:100370000D46F540A14000D0012129430843010664
:100380001B1B000ADB1D02D5002070BC7047DB057B
:10039000181880180029F8DA401C4900F5D170BC03
:1003A0004008400070470000064C0125064E05E05D
:1003B000E36807CC2B430C3C98471034B442F7D386
:1003C000FFF782FE741D0000941D000010B500F0C0
:1003D000F9FD01F085FB002010BD10B5C046C046F8
:1003E000C046C04610BD000070B5044625460A222E
:1003F000044801682846FFF7B5FE0A35281BC6B237
:10040000304670BD2400002070B504462546032206
:10041000044801682846FFF7A5FEED1C281BC6B25C
:10042000304670BD18000020164909894805400D66
:100430001549C968C90AC9020143134AD160114963
:10044000C9884805400D1146C968C90AC902014357
:10045000D1600C4989884805400D1146C968C90A10
:10046000C9020143D160074909884805400D11467A
:10047000C968C90AC9020143D16004480449086037
:1004800070470000000C10000020004000366E0194
:10049000000000201FB5072102A801F0E5FA07219E
:1004A000684601F0E1FA01211C2000F05BFD00210B
:1004B0006846417202AA0A21402000F09FFA0021FA
:1004C0006846417081700121C17000210171417144
:1004D0006A460421402000F091FA012204214020C4
:1004E00000F0F0FA1FBD1FB5072102A801F0BCFA09
:1004F0000721684601F0B8FA01211C2000F032FD06
:1005000000216846417202AA0921002000F076FA13
:1005100001220921002000F0CBFA01216846417236
:1005200002AA0A21002000F069FA01220A21002013
:1005300000F0BEFA1FBD7CB5044601210B2000F07F
:1005400011FD00216846017041710421C170012133
:100550008171002101718170417000F00BFF012059
:100560000004001B85B2284600F0D0FE01200004E4
:10057000001B86B2304600F0D7FE002000F05EFD82
:1005800000F0ECFE01220321052000F057F87CBDAD
:100590001FB51021684601F067FA0121002000F024
:1005A000E1FC402168460170002141804170E12159
:1005B0004902039101214902818000F0C3FC0290AD
:1005C00069460120800701F0C7F80021012080075B
:1005D00001F08CF80121880701F088F80021012042
:1005E000800701F0A2F80121880701F09EF801229E
:1005F0000321062000F022F81FBD10B5C046C046FA
:1006000010BD10B5C046C04610BD1FB510216846CC
:1006100001F02AFA0121002000F0A4FC00210120B1
:10062000800701F063F800210120800701F069F8DC
:1006300000220121062000F001F81FBD70B504461C
:100640000E4615462046002805DBC206D20E0121C3
:100650009140184A116000BF3146204601F05EF912
:10066000012D0AD12046002805DBC206D20E012149
:100670009140114A116000BF1BE02046002816DBA4
:10068000C206D20E012191400B4A8032116000BF98
:1006900000BF00BFBFF34F8F00BF00BF00BF00BF50
:1006A00000BF00BFBFF36F8F00BF00BF00BF00BF20
:1006B00000BF70BD80E200E000E100E010B5C04680
:1006C000C046C046C04610BDF8B50546E801040C5A
:1006D0000026002700200090E805C00D002801D06A
:1006E000601C84B2802C0EDA2046E117890F0918AD
:1006F00089050E0E0120B04007463946002000F063
:10070000AFF800900EE020468038C117890F091815
:1007100089050E0E0120B04007463946012000F041
:100720009FF800900098F8BDF0B58BB005460E46D6
:10073000002435480A9001200990202101A8FFF7E4
:100740002AFD324F012D0ED0022D0CD0042D0AD0DF
:10075000062D08D0082D06D00C2D04D004200990B9
:1007600009980BB0F0BD00BF29482849C862294844
:10077000C86200BF0846006A491588437102012219
:10078000520211400843214908620846006A800568
:10079000C00FB04203D0072009900998E1E7002478
:1007A00007E0A0001C4908586843A10001AA505066
:1007B000641C082CF5D300241FE013480A9014E0B1
:1007C0000A98411E0A9100280CD000BF10480F491A
:1007D000C8621048C86200BFA00001A90858A10063
:1007E000785002E007200990BBE7A0003858A1002C
:1007F00001AA51588842E3D1641C082CDDD30020A3
:1008000009900998ADE70000FFFFFF0000000240DB
:100810005A5A0000A5A50000A41C0000012000BF3A
:100820000C490D4AD1620D49D16200BF002111630C
:1008300000BF0849D1620949D16200BF002151635C
:100840001146096B002904D11146496B002900D1DA
:10085000002070475A5A000000000240A5A5000081
:1008600010B50246012300BF09480A4CE0620A485D
:10087000E06200BF074830309400015194000059F5
:10088000884202D10020034610BD1846FCE7000054
:100890005A5A000000000240A5A5000001460120B0
:1008A00000BF0B4A0B4BDA620B4ADA6200BF1A46F2
:1008B000126A920892008B079B0F1A43054B1A622B
:1008C0001A46126A9207920F8A4200D1002070479E
:1008D0005A5A000000000240A5A5000008B50146D4
:1008E0000022194800901948006A8007800F0228EA
:1008F00001D0062008BD1648814202D904221046C4
:10090000F8E71148009006E00098431E0093002885
:1009100001D10920EEE70D48006AC006C00F00288B
:10092000F2D108600848009006E00098431E00934A
:10093000002801D10920DDE70448006AC006C00F85
:100940000028F2D11046D5E7FFFFFF00000002406B
:10095000FFFF010078B503460C46012521480090B1
:1009600000212148006A8007800F012801D006205D
:1009700078BD9818401E1D4EB04202D90425284665
:10098000F6E71848009006E00098461E00960028FA
:1009900001D10920ECE71448006AC006C00F002806
:1009A000F2D1002119E0605C18700E48009006E05A
:1009B0000098461E0096002801D10920D8E70A4871
:1009C000006AC006C00F0028F2D1605C1E78B042F9
:1009D00001D00120CCE75B1C491C9142E3D30025E8
:1009E0002846C5E7FFFFFF0000000240FFFF0100AF
:1009F00002461068C840C007C00F704770B5044673
:100A00000E461546214960180022314600F0CCF907
:100A100000201F496118B20088502A781B49091F1D
:100A20006018314600F0C0F96A7818490C3960182E
:100A3000314600F0B9F9AA781449103160183146EE
:100A400000F0B2F9EA78114914316018314600F02B
:100A5000ABF92A790D4918316018314600F0A4F934
:100A60006A790A4920316018314600F09DF9094839
:100A700080680121C9038843A979C9030122D203EF
:100A80001140084303498860002070BD0C0D0240EE
:100A9000000C0240000F024070B504460D460349A9
:100AA00060182946FFF7A4FF70BD0000080D024042
:100AB00010B50346024818188C000251002010BDE2
:100AC000000C024070B504460D46164603496018F6
:100AD0003246294600F068F9002070BD080D02403A
:100AE00008B50020009000BF00980028FCD008BD89
:100AF00010B5C046C04610BD10B5C046C04610BDBA
:100B000010B500F005F910BD70B504462568012048
:100B10004007854212D90A4885420FD800F040F8B4
:100B2000606808490860084600680749086020684E
:100B300080F3088800BF084600688047012070BD28
:100B400000400020840000208800002010B5012013
:100B50004003FFF7D9FF10BD1FE000F053F8044633
:100B6000002C07D101204003FFF7CEFF012801D15F
:100B700000BFFEE70948007801280BD10A21402078
:100B8000FFF78AFF0121081AC5B22A460A21402030
:100B9000FFF798FF002001490870DEE738000020C9
:100BA00010B5FFF741FCFFF730FD01210620FFF7EC
:100BB000BBFDFFF733FE10BD10B50F2040020468E7
:100BC0000348844203D001204003FFF79DFF10BD7E
:100BD0005555AAAA10B5C046C04610BD10B5C046AE
:100BE000C046C046C04610BD10B5C046C04610BD88
:100BF00010B500F005F810BD10B5C046C04610BDD8
:100C000000BF7047F8B50025384E394800780328F2
:100C100069D13046047A30460A30FFF7C7FA0546F4
:100C2000A02C53D1707A212850D132480088C005B9
:100C3000C00D00280DD12F480068FFF745FD07467D
:100C40000220FFF72BFE07462A480068FFF746FE02
:100C500007460120FFF722FE07462A4623490E31A8
:100C600024480068FFF776FE0746002F04D00020D6
:100C70001F4908700120F8BD1F48006840191E492F
:100C800008601C48006840191A490860002018498B
:100C9000087001201949087019480078194908702E
:100CA00000201949087014480068184909688842EA
:100CB0000CD301210620FFF737FD0020FFF7EEFDE2
:100CC000FFF7ACFD00200A490870D4E7A02C07D13B
:100CD000707A202804D105480021054A117002E0ED
:100CE0000020034908700B20C5E700000401002024
:100CF0005800002074000020700000203400002004
:100D0000280000203500002039000020800000204D
:100D100000210D4A1170002003E000210B4A1154FC
:100D2000401C832189008842F7D3002003E0002182
:100D3000074A1154401C2028F9D30021054A1160AC
:100D4000014A117070470000580000200401002083
:100D5000100300204400002010B5C046C04610BD5E
:100D600010B5C046C04610BD10B5C046C04610BD47
:100D700010B5C046C04610BD10B5C046C046C046FE
:100D8000C04610BD10B5C046C046C046C04610BDE6
:100D900010B5C046C04610BD10B5C046C04610BD17
:100DA00010B5C046C04610BD10B5012A05D1036874
:100DB00001248C402343036004E0036801248C4039
:100DC000A343036010BD10B5C046C04610BD00006F
:100DD00030B589B000241422564904A8FFF7C2F99F
:100DE0005448143000680390002000900190029055
:100DF00051480188684601814F4841886846C18052
:100E00004D488188684681804B48C188684641804A
:100E1000494820300188684601804848006800063B
:100E2000450F2B0000F06CFD05042E303E4178008C
:100E30004248C0684005400D69460989884201D191
:100E4000089C1EE03D48C0684005400D6946C988C1
:100E5000884201D1079C14E03848C0684005400D25
:100E600069468988884201D1069C0AE03348C068F7
:100E70004005400D69464988884201D1059C00E043
:100E8000049C4BE02E4C49E0684600882B49496998
:100E90008905890D884202D16846C48901E0684607
:100EA00084893BE00124E40338E02448C06B8007D8
:100EB000800F032829D1684600892049C96849055F
:100EC000490D884201D1089C20E06846C0881B4932
:100ED000C9684905490D884201D1079C16E068465A
:100EE00080881649C9684905490D884201D1069C88
:100EF0000CE0684640881149C9684905490D884297
:100F000001D1059C02E0049C00E00D4C0B48C06B35
:100F1000C005000F444301E0002400BF00BF0748A4
:100F200000684005410F2046C8400446204609B0ED
:100F300030BD0000CC1C0000000C10000020004060
:100F40000048E80110B50024FFF742FF04460448BA
:100F50000068C004810F2046C8400446204610BDEA
:100F60000020004070B504460D4620202040002897
:100F700014D020212046884304462A4621460B48A7
:100F8000FFF712FF032C02D1094805700CE0084856
:100F9000027803210548FFF707FF05E02A462146AE
:100FA0000248001FFFF700FF002070BD2420004012
:100FB0003D00002010B5FFF70BFF0149086010BD90
:100FC0000000002010B50D4949888805800D0C49A6
:100FD0004969890A89020143094A5161074920394F
:100FE00009894805400D1146C968C90AC90201436B
:100FF000D160FFF7DFFF00F015FC10BD200C1000E2
:101000000020004010B5C046C04610BD10B5C04617
:10101000C04610BD10B5C046C04610BD10B500F0AA
:1010200023F810BD10B5C046C04610BD10B5C0466F
:10103000C04610BD10B5C046C04610BD01460020D8
:1010400001228A40D243014B5A6170470058004048
:1010500001460020034B1A691346CB40D807C00F46
:10106000704700000058004010B50020FFF7F0FF67
:1010700001287DD191480088401C90490880782142
:101080008E480088FFF75AF8002902D101208C49C8
:1010900008708A4800888B4988421FDB8A4800789C
:1010A00000281BD164218948FFF775F82E22884853
:1010B0000168864800F0B4FC864908708348864A77
:1010C0001278815C0120800700F094FB01207E49AA
:1010D000087082490880FF208149087081480078A3
:1010E00001281ED100207F4908707F480078401CED
:1010F0007D49087064217548FFF74DF82E22744829
:101100000168724800F08CFC724908706F48724A9E
:101110001278815C0120800700F06CFB01206F4990
:1011200008806E48008800282DD06C480088401C3C
:101130006A490880084600886C49884223DD0120FE
:1011400066490880664800786749097888421AD05D
:1011500064215E48FFF71FF82E225D4801685B4856
:1011600000F05EFC5B49087058485B4A127800E06A
:10117000A3E0815C0120800700F03CFB5C48007824
:10118000401C5B4908705A4800780F287EDB59489C
:101190000088401C57490880084600887D21C90006
:1011A000884217DB54480078002813D101205249A7
:1011B000087064214548FEF7EEFF4448FFF724F924
:1011C000444908704148444A1278815C01208007F4
:1011D00000F010FB474800887D210901884217DB99
:1011E00045480078012813D1022043490870642142
:1011F0003648FEF7D0FF354800F0A6FC35490870A8
:101200003248354A1278815C0120800700F0F2FAFA
:10121000384800883949884217DB37480078022867
:1012200013D103203449087064212848FEF7B3FF26
:101230002648FFF7D9F8274908702448264A12782B
:10124000815C0120800700F0D5FA2A4800882C49EB
:10125000884217DB28480078032813D10420264948
:10126000087064211948FEF796FF184800F07CFCCE
:10127000184908701548184A1278815C01208007C7
:1012800000F0B8FA1B4800881E4900E00AE08842D6
:1012900008DB19480078042804D10020154908808B
:1012A000FFF754FC054800881749884202DB0020FC
:1012B000024908800020FFF7C1FE10BD3000002069
:1012C00038000020581B000032000020A000002041
:1012D0001400002011000020100000203600002023
:1012E00035000020340000202800002028230000C2
:1012F000390000203A0000203C000020B80B00001C
:10130000C8320000B036000060EA0000014600204C
:10131000044A1268120C12048BB21A43014B1A6071
:10132000704700000058004001460020044A5268FF
:10133000120C12048BB21A43014B5A607047000022
:101340000058004000200449C96849084900491C68
:10135000014AD16070470000005800400020044955
:10136000C9680122920291438918014AD1607047ED
:101370000058004010B501460020284AD2680323D7
:101380001B039A430B781B030324240323401A43B3
:10139000224BDA601A46D2685B159A434B785B029F
:1013A0000124640223401A431C4BDA601A46D268B7
:1013B0009B159A438B781B02641023401A43174BEA
:1013C000DA601A46D26870239A43CB781B017024E6
:1013D00023401A43114BDA601A46D26808239A4315
:1013E0000B79DB00082423401A430C4BDA601A46C1
:1013F000D26804239A434B799B00042423401A4368
:10140000064BDA601A46D26802239A438B795B0056
:10141000022423401A43014BDA6010BD00580040FB
:10142000704710B500F00AF8C046C04610BD10B5B0
:10143000C046C046C046C04610BD000010B50121E0
:10144000880700F07CF900281FD00121880700F0F0
:101450004DF991480078401C8F4908700846007883
:101460008E490978884203DB00208B4908700CE024
:10147000012080070068000A00028949864A127824
:10148000895C084301218907086000210120800749
:1014900000F055F9002874D000210120800700F0E9
:1014A00025F90120800700F0A1F97E49087008465F
:1014B0000078412802D101207B4908707B480088D0
:1014C0007B49884209DC774801787848028800889F
:1014D000401C764B18807748815477480078002864
:1014E0000FD17148007801280BD16E4800787349FC
:1014F000714A1278885470480078401C6E49087010
:1015000010BD6D480078012813D1664800786B49FA
:10151000694A12788854087800F04BFA020167494A
:10152000487800F046FA024365490A700020624993
:10153000087000206349086063480078002806D0DE
:10154000012810D002282DD003280BD1A0E05C4840
:101550000078A52806D15A4800785C490870012017
:101560005949087095E056480078A5280AD1544892
:101570000078564948700220554908605249087061
:101580000FE087E04E480078A52807D14C48007846
:101590004E49087001204C49087002E000204A4979
:1015A000087076E046480178494802680068401CA7
:1015B000474B1860454881541846006811281ED1D1
:1015C0004448007800281AD14048807B3F49C97BB5
:1015D000090240183D49097C090440183B49497CEF
:1015E000090640183C49086001203C490870394808
:1015F00000783B49087000203349087080E7344880
:10160000006806281DD13148407900062F49097924
:10161000090440182D49C978090240182B498978D6
:10162000401830490860084600680C2805D3084671
:10163000006883218900884229D900202249087046
:101640005EE723480068082821D921480168254819
:101650000068801D81421AD11C4880791B49C979D4
:1016600009024018204908801E480068811E17485A
:10167000083000F0B1F91C490988884203D10320E1
:101680001149087003E000200F49087038E700E0B6
:1016900000BF00BF00BF33E7100000201100002092
:1016A000A000002041000020420000205E00002039
:1016B0000E0200005803002060000020610000209E
:1016C00040000020540000205800002004010020A9
:1016D000440000202800002080000020340000206A
:1016E00035000020480000204C00002070B5044662
:1016F0000D460022294620461430FFF755FB0020F6
:1017000070BD70B504460D4600222946201DFFF726
:101710004BFB002070BD70B504460D4601222946E2
:10172000201DFFF741FB002070BD70B504460D463B
:1017300001222946201DFFF737FB002070BD70B540
:1017400004460D460026294620461030FFF750F982
:101750000646304670BD0000F0B585B005460C4623
:101760000127214903C90491039000200290002C15
:1017700002D1042005B0F0BD002068606088617867
:101780000843A188084321780843686020784028EE
:1017900002D02078C02824D1A088C117C90D09180B
:1017A0004912890003AA515A8EB2E168B140084635
:1017B000FEF79DFD0190A068FEF799FD009001994C
:1017C000FEF757FD02903F2109060298FEF7F8FC4C
:1017D0000190FEF793FD80B2A86104212846FFF72F
:1017E0009AFF00273846C5E7C41C00000146086878
:1017F000C0B2704702461068000A0002CBB218431C
:1018000010600020704710B5C046C04610BD10B52E
:10181000C046C046C046C04610BD10B5C046C04612
:1018200010BD00002F49086A096A0122120791437E
:1018300089182C4A11622C49C968072252031140A9
:10184000294AD16028494031C9680021264A4032DE
:10185000D1602649C9680021244AD160234940311A
:10186000C968234A1140214A4032D1601E490968A3
:10187000204A11431C4A11601B49403109681E4A25
:101880001143194A40321160184909681A4A114334
:10189000164A1160154940310968184A1143134A24
:1018A000403211601049096A124A11430E4A11620E
:1018B0000D494031096A104A11430B4A4032116206
:1018C0000A49096A0C4A1143084A11620749403122
:1018D000096A0A4A1143054A403211620149086205
:1018E0007047000000200040800D0240001D0240B3
:1018F000C3F90000FF1F0000FFFF00003C060000CE
:1019000030B47446641E2578641CAB4204D3635D16
:101910005B00E31830BC18471D46F8E710B50028F7
:1019200019DB1A4A03231B02D21883089B00D258E2
:101930008307DC0EFF23A3409A438B071B0E84070B
:10194000E40EA3401A43114B032424021B198408FC
:10195000A4001A5118E00E4A03071B0F083B9B080E
:101960009B00D2588307DC0EFF23A3409A438B07CA
:101970001B0E8407E40EA3401A43054B0407240FF3
:10198000083CA408A4001A5110BD000000E100E0CA
:101990001CED00E002E008C8121F08C1002AFAD1BD
:1019A00070477047002001E001C1121F002AFBD1DF
:1019B00070470146302905DB392903DC08463038F9
:1019C000C0B27047412905DB5A2903DC0846373885
:1019D000C0B2F6E70020F4E770B502460023002409
:1019E0000D4813E0155D6840651CACB200230BE0A8
:1019F000C507ED0F002D04D04510084E7540284650
:101A000000E040105D1CEBB2082BF1DB0D46491ED7
:101A1000002DE7D170BD0000FFFF000001A0000015
:101A2000F8B504460E46154600942A4631460098FD
:101A3000FEF798FB00984019009009480178684625
:101A400000F0A2F80322074801680098FEF78AFB1D
:101A50000098C01C00900098001BC7B23846F8BD23
:101A6000280000202C00002010B50A46014600295D
:101A700000D110BD02E000230B70491C1346521E1A
:101A8000002BF8D100BFF4E770B5054611481249A4
:101A90004861002088610520086110E000200E499F
:101AA00088617D21C9000D480068FEF731FB0121E6
:101AB00009060C1A00BF08488069A042FBD82846D6
:101AC0006D1E0028EAD10448006940084000024920
:101AD000086170BDFFFFFF0000E000E00000002093
:101AE0000024FEF7A1FCFEF7D5FCFEF7FCFCFEF798
:101AF0004FFD01210620FEF717FE0446002C03D0FF
:101B000001210620FEF710FEC820FFF7BDFF0A489E
:101B1000FEF711FDFFF716FCFEF7F2FF0BE007489A
:101B20000078042803D10648006806490860FFF7DA
:101B300043F8FFF711F8F2E7B80B000006000020A9
:101B40008C0000200800002070B5044625460E22B7
:101B5000044801682846FEF705FB0E35281BC6B26F
:101B6000304670BD1C00002070B5044625460E228C
:101B7000044801682846FEF7F5FA0E35281BC6B260
:101B8000304670BD2000002070B504460D460A2D79
:101B900007D228463030216808702068401C206039
:101BA0007DE00A2D16D3642D14D20A212846FEF7B3
:101BB000AFFA3030216808702068401C20600A218C
:101BC0002846FEF7A5FA3031206801702068401CD5
:101BD000206064E0642D27D37D20C000854223D29D
:101BE00064212846FEF794FA303021680870206896
:101BF000401C206064212846FEF78AFA0E460A211E
:101C00003046FEF785FA3030216808702068401CA5
:101C100020600A212846FEF77BFA303120680170E7
:101C20002068401C20603AE07D20C000854236D309
:101C30001B48854233D27D21C9002846FEF768FA49
:101C40003030216808702068401C20607D21C90068
:101C50002846FEF75DFA0E4664213046FEF758FA34
:101C60003030216808702068401C206064212846BC
:101C7000FEF74EFA0E460A213046FEF749FA30309A
:101C8000216808702068401C20600A212846FEF761
:101C90003FFA3031206801702068401C206070BD20
:101CA0001027000020000000170000001B000000AB
:101CB00050460000E022020018000000F000000082
:101CC000E8030000040000000300000000093D00DC
:101CD00000127A000024F4004086510100366E01A3
:101CE0000080009661646D696E41542B530A0000B8
:101CF00041542B574B4D4F443D4D5154540A000015
:101D000075706772616465206661696C0A00000025
:101D1000227D0A00626F6F742073746172742100F7
:101D20007B2270726F6A656374223A2274657374E1
:101D3000222C2276657273696F6E223A22312E3020
:101D40002E30222C227061636B4E6F223A220000EB
:101D50002B2B2B00726561647920746F2075706481
:101D600061746500776169742075706772616421C0
:101D700000000000941D0000000000208C00000006
:101D800094190000201E00008C000020E4060000D2
:101D9000A419000000093D000055000000000000EB
:101DA000141D000000000000201D0000501D000058
:101DB000F01C0000001D0000E41C000000000000FA
:101DC000101D0000000000000000000000000000E6
:101DD0000000000000000000000000000000000003
:101DE00000000000541D0000000000000000004F33
:101DF0004B00000000000000000000000000000098
:101E0000000000000000000000200000641D000031
:101E1000141D000000000000000000000000000091
:04000005000000C136
:00000001FF
